{
  "address": "0xE6857DF28aA64Da44DDadda2E1d21Fb45164eb29",
  "abi": [
    {
      "inputs": [
        {
          "internalType": "address",
          "name": "_layerZeroEndpoint",
          "type": "address"
        }
      ],
      "stateMutability": "nonpayable",
      "type": "constructor"
    },
    {
      "anonymous": false,
      "inputs": [
        {
          "indexed": true,
          "internalType": "address",
          "name": "owner",
          "type": "address"
        },
        {
          "indexed": true,
          "internalType": "address",
          "name": "approved",
          "type": "address"
        },
        {
          "indexed": true,
          "internalType": "uint256",
          "name": "tokenId",
          "type": "uint256"
        }
      ],
      "name": "Approval",
      "type": "event"
    },
    {
      "anonymous": false,
      "inputs": [
        {
          "indexed": true,
          "internalType": "address",
          "name": "owner",
          "type": "address"
        },
        {
          "indexed": true,
          "internalType": "address",
          "name": "operator",
          "type": "address"
        },
        {
          "indexed": false,
          "internalType": "bool",
          "name": "approved",
          "type": "bool"
        }
      ],
      "name": "ApprovalForAll",
      "type": "event"
    },
    {
      "anonymous": false,
      "inputs": [
        {
          "indexed": false,
          "internalType": "uint16",
          "name": "_srcChainId",
          "type": "uint16"
        },
        {
          "indexed": false,
          "internalType": "bytes",
          "name": "_srcAddress",
          "type": "bytes"
        },
        {
          "indexed": false,
          "internalType": "uint64",
          "name": "_nonce",
          "type": "uint64"
        },
        {
          "indexed": false,
          "internalType": "bytes",
          "name": "_payload",
          "type": "bytes"
        }
      ],
      "name": "MessageFailed",
      "type": "event"
    },
    {
      "anonymous": false,
      "inputs": [
        {
          "indexed": true,
          "internalType": "address",
          "name": "previousOwner",
          "type": "address"
        },
        {
          "indexed": true,
          "internalType": "address",
          "name": "newOwner",
          "type": "address"
        }
      ],
      "name": "OwnershipTransferred",
      "type": "event"
    },
    {
      "anonymous": false,
      "inputs": [
        {
          "indexed": true,
          "internalType": "address",
          "name": "from",
          "type": "address"
        },
        {
          "indexed": true,
          "internalType": "address",
          "name": "to",
          "type": "address"
        },
        {
          "indexed": true,
          "internalType": "uint256",
          "name": "tokenId",
          "type": "uint256"
        }
      ],
      "name": "Transfer",
      "type": "event"
    },
    {
      "inputs": [],
      "name": "_owner",
      "outputs": [
        {
          "internalType": "address",
          "name": "",
          "type": "address"
        }
      ],
      "stateMutability": "view",
      "type": "function"
    },
    {
      "inputs": [
        {
          "internalType": "address",
          "name": "to",
          "type": "address"
        },
        {
          "internalType": "uint256",
          "name": "tokenId",
          "type": "uint256"
        }
      ],
      "name": "approve",
      "outputs": [],
      "stateMutability": "nonpayable",
      "type": "function"
    },
    {
      "inputs": [
        {
          "internalType": "address",
          "name": "owner",
          "type": "address"
        }
      ],
      "name": "balanceOf",
      "outputs": [
        {
          "internalType": "uint256",
          "name": "",
          "type": "uint256"
        }
      ],
      "stateMutability": "view",
      "type": "function"
    },
    {
      "inputs": [
        {
          "internalType": "uint16",
          "name": "",
          "type": "uint16"
        },
        {
          "internalType": "bytes",
          "name": "",
          "type": "bytes"
        },
        {
          "internalType": "uint256",
          "name": "",
          "type": "uint256"
        }
      ],
      "name": "failedMessages",
      "outputs": [
        {
          "internalType": "uint256",
          "name": "payloadLength",
          "type": "uint256"
        },
        {
          "internalType": "bytes32",
          "name": "payloadHash",
          "type": "bytes32"
        }
      ],
      "stateMutability": "view",
      "type": "function"
    },
    {
      "inputs": [
        {
          "internalType": "uint256",
          "name": "tokenId",
          "type": "uint256"
        }
      ],
      "name": "getApproved",
      "outputs": [
        {
          "internalType": "address",
          "name": "",
          "type": "address"
        }
      ],
      "stateMutability": "view",
      "type": "function"
    },
    {
      "inputs": [
        {
          "internalType": "address",
          "name": "owner",
          "type": "address"
        },
        {
          "internalType": "address",
          "name": "operator",
          "type": "address"
        }
      ],
      "name": "isApprovedForAll",
      "outputs": [
        {
          "internalType": "bool",
          "name": "",
          "type": "bool"
        }
      ],
      "stateMutability": "view",
      "type": "function"
    },
    {
      "inputs": [
        {
          "internalType": "uint16",
          "name": "_srcChainId",
          "type": "uint16"
        },
        {
          "internalType": "bytes",
          "name": "_srcAddress",
          "type": "bytes"
        },
        {
          "internalType": "uint64",
          "name": "_nonce",
          "type": "uint64"
        },
        {
          "internalType": "bytes",
          "name": "_payload",
          "type": "bytes"
        }
      ],
      "name": "lzReceive",
      "outputs": [],
      "stateMutability": "nonpayable",
      "type": "function"
    },
    {
      "inputs": [
        {
          "internalType": "string",
          "name": "tokenUri",
          "type": "string"
        }
      ],
      "name": "mint",
      "outputs": [],
      "stateMutability": "payable",
      "type": "function"
    },
    {
      "inputs": [],
      "name": "name",
      "outputs": [
        {
          "internalType": "string",
          "name": "",
          "type": "string"
        }
      ],
      "stateMutability": "view",
      "type": "function"
    },
    {
      "inputs": [
        {
          "internalType": "uint16",
          "name": "_srcChainId",
          "type": "uint16"
        },
        {
          "internalType": "bytes",
          "name": "_srcAddress",
          "type": "bytes"
        },
        {
          "internalType": "uint64",
          "name": "_nonce",
          "type": "uint64"
        },
        {
          "internalType": "bytes",
          "name": "_payload",
          "type": "bytes"
        }
      ],
      "name": "onLzReceive",
      "outputs": [],
      "stateMutability": "nonpayable",
      "type": "function"
    },
    {
      "inputs": [],
      "name": "owner",
      "outputs": [
        {
          "internalType": "address",
          "name": "",
          "type": "address"
        }
      ],
      "stateMutability": "view",
      "type": "function"
    },
    {
      "inputs": [
        {
          "internalType": "uint256",
          "name": "tokenId",
          "type": "uint256"
        }
      ],
      "name": "ownerOf",
      "outputs": [
        {
          "internalType": "address",
          "name": "",
          "type": "address"
        }
      ],
      "stateMutability": "view",
      "type": "function"
    },
    {
      "inputs": [],
      "name": "renounceOwnership",
      "outputs": [],
      "stateMutability": "nonpayable",
      "type": "function"
    },
    {
      "inputs": [
        {
          "internalType": "uint16",
          "name": "_srcChainId",
          "type": "uint16"
        },
        {
          "internalType": "bytes",
          "name": "_srcAddress",
          "type": "bytes"
        },
        {
          "internalType": "uint64",
          "name": "_nonce",
          "type": "uint64"
        },
        {
          "internalType": "bytes",
          "name": "_payload",
          "type": "bytes"
        }
      ],
      "name": "retryMessage",
      "outputs": [],
      "stateMutability": "payable",
      "type": "function"
    },
    {
      "inputs": [
        {
          "internalType": "address",
          "name": "from",
          "type": "address"
        },
        {
          "internalType": "address",
          "name": "to",
          "type": "address"
        },
        {
          "internalType": "uint256",
          "name": "tokenId",
          "type": "uint256"
        }
      ],
      "name": "safeTransferFrom",
      "outputs": [],
      "stateMutability": "nonpayable",
      "type": "function"
    },
    {
      "inputs": [
        {
          "internalType": "address",
          "name": "from",
          "type": "address"
        },
        {
          "internalType": "address",
          "name": "to",
          "type": "address"
        },
        {
          "internalType": "uint256",
          "name": "tokenId",
          "type": "uint256"
        },
        {
          "internalType": "bytes",
          "name": "data",
          "type": "bytes"
        }
      ],
      "name": "safeTransferFrom",
      "outputs": [],
      "stateMutability": "nonpayable",
      "type": "function"
    },
    {
      "inputs": [
        {
          "internalType": "address",
          "name": "operator",
          "type": "address"
        },
        {
          "internalType": "bool",
          "name": "approved",
          "type": "bool"
        }
      ],
      "name": "setApprovalForAll",
      "outputs": [],
      "stateMutability": "nonpayable",
      "type": "function"
    },
    {
      "inputs": [
        {
          "internalType": "uint256",
          "name": "newVal",
          "type": "uint256"
        }
      ],
      "name": "setGasForDestinationLzReceive",
      "outputs": [],
      "stateMutability": "nonpayable",
      "type": "function"
    },
    {
      "inputs": [
        {
          "internalType": "uint16",
          "name": "_chainId",
          "type": "uint16"
        },
        {
          "internalType": "bytes",
          "name": "_trustedRemote",
          "type": "bytes"
        }
      ],
      "name": "setTrustedRemote",
      "outputs": [],
      "stateMutability": "nonpayable",
      "type": "function"
    },
    {
      "inputs": [
        {
          "internalType": "bytes4",
          "name": "interfaceId",
          "type": "bytes4"
        }
      ],
      "name": "supportsInterface",
      "outputs": [
        {
          "internalType": "bool",
          "name": "",
          "type": "bool"
        }
      ],
      "stateMutability": "view",
      "type": "function"
    },
    {
      "inputs": [],
      "name": "symbol",
      "outputs": [
        {
          "internalType": "string",
          "name": "",
          "type": "string"
        }
      ],
      "stateMutability": "view",
      "type": "function"
    },
    {
      "inputs": [
        {
          "internalType": "uint256",
          "name": "tokenId",
          "type": "uint256"
        }
      ],
      "name": "tokenURI",
      "outputs": [
        {
          "internalType": "string",
          "name": "",
          "type": "string"
        }
      ],
      "stateMutability": "view",
      "type": "function"
    },
    {
      "inputs": [
        {
          "internalType": "address",
          "name": "from",
          "type": "address"
        },
        {
          "internalType": "address",
          "name": "to",
          "type": "address"
        },
        {
          "internalType": "uint256",
          "name": "tokenId",
          "type": "uint256"
        }
      ],
      "name": "transferFrom",
      "outputs": [],
      "stateMutability": "nonpayable",
      "type": "function"
    },
    {
      "inputs": [
        {
          "internalType": "address",
          "name": "newOwner",
          "type": "address"
        }
      ],
      "name": "transferOwnership",
      "outputs": [],
      "stateMutability": "nonpayable",
      "type": "function"
    },
    {
      "inputs": [
        {
          "internalType": "uint16",
          "name": "_chainId",
          "type": "uint16"
        },
        {
          "internalType": "uint256",
          "name": "tokenId",
          "type": "uint256"
        },
        {
          "internalType": "string",
          "name": "newTokenUri",
          "type": "string"
        }
      ],
      "name": "traverseChains",
      "outputs": [],
      "stateMutability": "payable",
      "type": "function"
    },
    {
      "inputs": [
        {
          "internalType": "uint16",
          "name": "",
          "type": "uint16"
        }
      ],
      "name": "trustedRemoteLookup",
      "outputs": [
        {
          "internalType": "bytes",
          "name": "",
          "type": "bytes"
        }
      ],
      "stateMutability": "view",
      "type": "function"
    },
    {
      "inputs": [
        {
          "internalType": "uint256",
          "name": "amt",
          "type": "uint256"
        }
      ],
      "name": "withdraw",
      "outputs": [],
      "stateMutability": "nonpayable",
      "type": "function"
    }
  ],
  "transactionHash": "0x47d38e5071d4b005b3d7cd12198da786a06927d10c83e03a5a36e212062c0064",
  "args": [
    "0xbfD2135BFfbb0B5378b56643c2Df8a87552Bfa23"
  ],
  "numDeployments": 1,
  "solcInputHash": "373104549c4ee7a44e0e958e090c5b59",
  "bytecode": "0x60806040526000600c55612710600d5562055730600e553480156200002357600080fd5b5060405162002cc738038062002cc783398101604081905262000046916200014e565b6040518060400160405280600e81526020016d13585d195c9a585b0815dbdc9b1960921b815250604051806040016040528060058152602001641353d3919560da1b815250620000a56200009f620000fa60201b60201c565b620000fe565b6001620000b3838262000225565b506002620000c2828262000225565b5050600a8054336001600160a01b031991821617909155600780549091166001600160a01b03939093169290921790915550620002f1565b3390565b600080546001600160a01b038381166001600160a01b0319831681178455604051919092169283917f8be0079c531659141344cd1fd0a4f28419497f9722a3daafe3b4186f6b6457e09190a35050565b6000602082840312156200016157600080fd5b81516001600160a01b03811681146200017957600080fd5b9392505050565b634e487b7160e01b600052604160045260246000fd5b600181811c90821680620001ab57607f821691505b602082108103620001cc57634e487b7160e01b600052602260045260246000fd5b50919050565b601f8211156200022057600081815260208120601f850160051c81016020861015620001fb5750805b601f850160051c820191505b818110156200021c5782815560010162000207565b5050505b505050565b81516001600160401b0381111562000241576200024162000180565b620002598162000252845462000196565b84620001d2565b602080601f831160018114620002915760008415620002785750858301515b600019600386901b1c1916600185901b1785556200021c565b600085815260208120601f198616915b82811015620002c257888601518255948401946001909101908401620002a1565b5085821015620002e15787850151600019600388901b60f8161c191681555b5050505050600190811b01905550565b6129c680620003016000396000f3fe60806040526004361061019b5760003560e01c80637533d788116100ec578063b88d4fde1161008a578063d85d3d2711610064578063d85d3d27146104d8578063e985e9c5146104eb578063eb8d72b71461050b578063f2fde38b1461052b57600080fd5b8063b88d4fde14610485578063c87b56dd146104a5578063d1deba1f146104c557600080fd5b8063943fb872116100c6578063943fb8721461041057806395d89b4114610430578063a22cb46514610445578063b2bdfa7b1461046557600080fd5b80637533d788146103675780638da5cb5b146103875780638ee74912146103a557600080fd5b806323b872dd116101595780635a770d62116101335780635a770d62146102f15780636352211e1461030457806370a0823114610324578063715018a61461035257600080fd5b806323b872dd146102915780632e1a7d4d146102b157806342842e0e146102d157600080fd5b80621d3567146101a057806301ffc9a7146101c257806306fdde03146101f7578063081812fc14610219578063095ea7b3146102515780631c37a82214610271575b600080fd5b3480156101ac57600080fd5b506101c06101bb366004611dbf565b61054b565b005b3480156101ce57600080fd5b506101e26101dd366004611e59565b610745565b60405190151581526020015b60405180910390f35b34801561020357600080fd5b5061020c610797565b6040516101ee9190611ecd565b34801561022557600080fd5b50610239610234366004611ee0565b610829565b6040516001600160a01b0390911681526020016101ee565b34801561025d57600080fd5b506101c061026c366004611f0e565b610850565b34801561027d57600080fd5b506101c061028c366004611dbf565b610965565b34801561029d57600080fd5b506101c06102ac366004611f3a565b6109d4565b3480156102bd57600080fd5b506101c06102cc366004611ee0565b610a05565b3480156102dd57600080fd5b506101c06102ec366004611f3a565b610ac5565b6101c06102ff366004611f7b565b610ae0565b34801561031057600080fd5b5061023961031f366004611ee0565b610dd4565b34801561033057600080fd5b5061034461033f366004611fd1565b610e34565b6040519081526020016101ee565b34801561035e57600080fd5b506101c0610eba565b34801561037357600080fd5b5061020c610382366004611fee565b610ece565b34801561039357600080fd5b506000546001600160a01b0316610239565b3480156103b157600080fd5b506103fb6103c0366004612009565b600860209081526000938452604080852084518086018401805192815290840195840195909520945292905282529020805460019091015482565b604080519283526020830191909152016101ee565b34801561041c57600080fd5b506101c061042b366004611ee0565b610f68565b34801561043c57600080fd5b5061020c610f75565b34801561045157600080fd5b506101c061046036600461205f565b610f84565b34801561047157600080fd5b50600a54610239906001600160a01b031681565b34801561049157600080fd5b506101c06104a036600461209d565b610f8f565b3480156104b157600080fd5b5061020c6104c0366004611ee0565b610fc1565b6101c06104d3366004612144565b6110de565b6101c06104e63660046121cf565b61126b565b3480156104f757600080fd5b506101e2610506366004612203565b611302565b34801561051757600080fd5b506101c0610526366004612231565b611330565b34801561053757600080fd5b506101c0610546366004611fd1565b611356565b6007546001600160a01b0316331461056257600080fd5b61ffff84166000908152600960205260409020805461058090612283565b905083511480156105bf575061ffff84166000908152600960205260409081902090516105ad91906122bd565b60405180910390208380519060200120145b61062d5760405162461bcd60e51b815260206004820152603460248201527f4e6f6e626c6f636b696e6752656365697665723a20696e76616c696420736f756044820152731c98d9481cd95b991a5b99c818dbdb9d1c9858dd60621b60648201526084015b60405180910390fd5b604051630e1bd41160e11b81523090631c37a82290610656908790879087908790600401612333565b600060405180830381600087803b15801561067057600080fd5b505af1925050508015610681575060015b61073f576040518060400160405280825181526020018280519060200120815250600860008661ffff1661ffff168152602001908152602001600020846040516106cb919061237c565b9081526040805191829003602090810183206001600160401b038716600090815290825291909120835181559201516001909201919091557fe6f254030bcb01ffd20558175c13fcaed6d1520be7becee4c961b65f79243b0d90610736908690869086908690612333565b60405180910390a15b50505050565b60006001600160e01b031982166380ac58cd60e01b148061077657506001600160e01b03198216635b5e139f60e01b145b8061079157506301ffc9a760e01b6001600160e01b03198316145b92915050565b6060600180546107a690612283565b80601f01602080910402602001604051908101604052809291908181526020018280546107d290612283565b801561081f5780601f106107f45761010080835404028352916020019161081f565b820191906000526020600020905b81548152906001019060200180831161080257829003601f168201915b5050505050905090565b6000610834826113cc565b506000908152600560205260409020546001600160a01b031690565b600061085b82610dd4565b9050806001600160a01b0316836001600160a01b0316036108c85760405162461bcd60e51b815260206004820152602160248201527f4552433732313a20617070726f76616c20746f2063757272656e74206f776e656044820152603960f91b6064820152608401610624565b336001600160a01b03821614806108e457506108e48133611302565b6109565760405162461bcd60e51b815260206004820152603d60248201527f4552433732313a20617070726f76652063616c6c6572206973206e6f7420746f60448201527f6b656e206f776e6572206f7220617070726f76656420666f7220616c6c0000006064820152608401610624565b610960838361142b565b505050565b3330146109c85760405162461bcd60e51b815260206004820152602b60248201527f4e6f6e626c6f636b696e6752656365697665723a2063616c6c6572206d75737460448201526a10313290213934b233b29760a91b6064820152608401610624565b61073f84848484611499565b6109de3382611561565b6109fa5760405162461bcd60e51b815260040161062490612398565b6109608383836115c0565b610a0d611724565b600a546040516000916001600160a01b03169083908381818185875af1925050503d8060008114610a5a576040519150601f19603f3d011682016040523d82523d6000602084013e610a5f565b606091505b5050905080610ac15760405162461bcd60e51b815260206004820152602860248201527f4d6174657269616c20576f726c643a204661696c656420746f2077697468647260448201526730bb9022ba3432b960c11b6064820152608401610624565b5050565b61096083838360405180602001604052806000815250610f8f565b610ae982610dd4565b6001600160a01b0316336001600160a01b031614610b545760405162461bcd60e51b815260206004820152602260248201527f596f75206d757374206f776e2074686520746f6b656e20746f20747261766572604482015261736560f01b6064820152608401610624565b61ffff831660009081526009602052604081208054610b7290612283565b905011610bd85760405162461bcd60e51b815260206004820152602e60248201527f5468697320636861696e2069732063757272656e746c7920756e617661696c6160448201526d189b1948199bdc881d1c985d995b60921b6064820152608401610624565b610be18261177e565b604051600190600090610bfe9083903390879087906020016123e5565b60408051601f1981840301815290829052600e54600160f01b60208401526022830152915060019060009060420160408051601f198184030181529082905260075463040a7bb160e41b83529092506000916001600160a01b03909116906340a7bb1090610c78908b90309089908790899060040161241f565b6040805180830381865afa158015610c94573d6000803e3d6000fd5b505050506040513d601f19601f82011682018060405250810190610cb89190612473565b50905080341015610d4d5760405162461bcd60e51b815260206004820152605360248201527f4d6174657269616c20576f726c643a206d73672e76616c7565206e6f7420656e60448201527f6f75676820746f20636f766572206d6573736167654665652e2053656e642067606482015272617320666f72206d657373616765206665657360681b608482015260a401610624565b60075461ffff8916600090815260096020526040808220905162c5803160e81b81526001600160a01b039093169263c5803100923492610d98928e928b913391908b90600401612497565b6000604051808303818588803b158015610db157600080fd5b505af1158015610dc5573d6000803e3d6000fd5b50505050505050505050505050565b6000818152600360205260408120546001600160a01b0316806107915760405162461bcd60e51b8152602060048201526018602482015277115490cdcc8c4e881a5b9d985b1a59081d1bdad95b88125160421b6044820152606401610624565b60006001600160a01b038216610e9e5760405162461bcd60e51b815260206004820152602960248201527f4552433732313a2061646472657373207a65726f206973206e6f7420612076616044820152683634b21037bbb732b960b91b6064820152608401610624565b506001600160a01b031660009081526004602052604090205490565b610ec2611724565b610ecc6000611813565b565b60096020526000908152604090208054610ee790612283565b80601f0160208091040260200160405190810160405280929190818152602001828054610f1390612283565b8015610f605780601f10610f3557610100808354040283529160200191610f60565b820191906000526020600020905b815481529060010190602001808311610f4357829003601f168201915b505050505081565b610f70611724565b600e55565b6060600280546107a690612283565b610ac1338383611863565b610f993383611561565b610fb55760405162461bcd60e51b815260040161062490612398565b61073f84848484611931565b6000818152600360205260409020546060906001600160a01b03166110405760405162461bcd60e51b815260206004820152602f60248201527f4552433732314d657461646174613a2055524920717565727920666f72206e6f60448201526e3732bc34b9ba32b73a103a37b5b2b760891b6064820152608401610624565b6000828152600b60205260409020805461105990612283565b80601f016020809104026020016040519081016040528092919081815260200182805461108590612283565b80156110d25780601f106110a7576101008083540402835291602001916110d2565b820191906000526020600020905b8154815290600101906020018083116110b557829003601f168201915b50505050509050919050565b61ffff851660009081526008602052604080822090516110ff90879061237c565b90815260408051602092819003830190206001600160401b03871660009081529252902060018101549091506111865760405162461bcd60e51b815260206004820152602660248201527f4e6f6e626c6f636b696e6752656365697665723a206e6f2073746f726564206d60448201526565737361676560d01b6064820152608401610624565b8054821480156111b05750806001015483836040516111a692919061257c565b6040518091039020145b6111fc5760405162461bcd60e51b815260206004820152601a60248201527f4c617965725a65726f3a20696e76616c6964207061796c6f61640000000000006044820152606401610624565b60008082556001820155604051630e1bd41160e11b81523090631c37a82290611231908990899089908990899060040161258c565b600060405180830381600087803b15801561124b57600080fd5b505af115801561125f573d6000803e3d6000fd5b50505050505050505050565b600d54600c5461127c906001612603565b11156112d65760405162461bcd60e51b815260206004820152602360248201527f4d6174657269616c20576f726c643a204d696e74206578636565647320737570604482015262706c7960e81b6064820152608401610624565b6112f333600c600081546112e990612616565b9182905550611964565b6112ff600c548261197e565b50565b6001600160a01b03918216600090815260066020908152604080832093909416825291909152205460ff1690565b611338611724565b61ffff8316600090815260096020526040902061073f82848361267d565b61135e611724565b6001600160a01b0381166113c35760405162461bcd60e51b815260206004820152602660248201527f4f776e61626c653a206e6577206f776e657220697320746865207a65726f206160448201526564647265737360d01b6064820152608401610624565b6112ff81611813565b6000818152600360205260409020546001600160a01b03166112ff5760405162461bcd60e51b8152602060048201526018602482015277115490cdcc8c4e881a5b9d985b1a59081d1bdad95b88125160421b6044820152606401610624565b600081815260056020526040902080546001600160a01b0319166001600160a01b038416908117909155819061146082610dd4565b6001600160a01b03167f8c5be1e5ebec7d5bd14f71427d1e84f3dd0314c0f7b2291e5b200ac8c7c3b92560405160405180910390a45050565b600080600080848060200190518101906114b3919061273d565b93509350935093508360ff166001036114df576114d08383611964565b6114da828261197e565b611557565b8360ff16600203611557578761ffff166127891461154d5760405162461bcd60e51b815260206004820152602560248201527f4f6e6c7920457468657265756d2063616e206d6f646966792074686520746f6b604482015264656e55726960d81b6064820152608401610624565b611557828261197e565b5050505050505050565b60008061156d83610dd4565b9050806001600160a01b0316846001600160a01b0316148061159457506115948185611302565b806115b85750836001600160a01b03166115ad84610829565b6001600160a01b0316145b949350505050565b826001600160a01b03166115d382610dd4565b6001600160a01b0316146115f95760405162461bcd60e51b8152600401610624906127ea565b6001600160a01b03821661165b5760405162461bcd60e51b8152602060048201526024808201527f4552433732313a207472616e7366657220746f20746865207a65726f206164646044820152637265737360e01b6064820152608401610624565b826001600160a01b031661166e82610dd4565b6001600160a01b0316146116945760405162461bcd60e51b8152600401610624906127ea565b600081815260056020908152604080832080546001600160a01b03199081169091556001600160a01b0387811680865260048552838620805460001901905590871680865283862080546001019055868652600390945282852080549092168417909155905184937fddf252ad1be2c89b69c2b068fc378daa952ba7f163c4a11628f55a4df523b3ef91a4505050565b6000546001600160a01b03163314610ecc5760405162461bcd60e51b815260206004820181905260248201527f4f776e61626c653a2063616c6c6572206973206e6f7420746865206f776e65726044820152606401610624565b600061178982610dd4565b905061179482610dd4565b600083815260056020908152604080832080546001600160a01b03199081169091556001600160a01b0385168085526004845282852080546000190190558785526003909352818420805490911690555192935084927fddf252ad1be2c89b69c2b068fc378daa952ba7f163c4a11628f55a4df523b3ef908390a45050565b600080546001600160a01b038381166001600160a01b0319831681178455604051919092169283917f8be0079c531659141344cd1fd0a4f28419497f9722a3daafe3b4186f6b6457e09190a35050565b816001600160a01b0316836001600160a01b0316036118c45760405162461bcd60e51b815260206004820152601960248201527f4552433732313a20617070726f766520746f2063616c6c6572000000000000006044820152606401610624565b6001600160a01b03838116600081815260066020908152604080832094871680845294825291829020805460ff191686151590811790915591519182527f17307eab39ab6107e8899845ad3d59bd9653f200f220920489ca2b5937696c31910160405180910390a3505050565b61193c8484846115c0565b61194884848484611a0f565b61073f5760405162461bcd60e51b81526004016106249061282f565b610ac1828260405180602001604052806000815250611b10565b6000828152600360205260409020546001600160a01b03166119f75760405162461bcd60e51b815260206004820152602c60248201527f4d6174657269616c20576f726c643a2055524920736574206f66206e6f6e657860448201526b34b9ba32b73a103a37b5b2b760a11b6064820152608401610624565b6000828152600b602052604090206109608282612881565b60006001600160a01b0384163b15611b0557604051630a85bd0160e11b81526001600160a01b0385169063150b7a0290611a53903390899088908890600401612940565b6020604051808303816000875af1925050508015611a8e575060408051601f3d908101601f19168201909252611a8b91810190612973565b60015b611aeb573d808015611abc576040519150601f19603f3d011682016040523d82523d6000602084013e611ac1565b606091505b508051600003611ae35760405162461bcd60e51b81526004016106249061282f565b805181602001fd5b6001600160e01b031916630a85bd0160e11b1490506115b8565b506001949350505050565b611b1a8383611b43565b611b276000848484611a0f565b6109605760405162461bcd60e51b81526004016106249061282f565b6001600160a01b038216611b995760405162461bcd60e51b815260206004820181905260248201527f4552433732313a206d696e7420746f20746865207a65726f20616464726573736044820152606401610624565b6000818152600360205260409020546001600160a01b031615611bfe5760405162461bcd60e51b815260206004820152601c60248201527f4552433732313a20746f6b656e20616c7265616479206d696e746564000000006044820152606401610624565b6000818152600360205260409020546001600160a01b031615611c635760405162461bcd60e51b815260206004820152601c60248201527f4552433732313a20746f6b656e20616c7265616479206d696e746564000000006044820152606401610624565b6001600160a01b038216600081815260046020908152604080832080546001019055848352600390915280822080546001600160a01b0319168417905551839291907fddf252ad1be2c89b69c2b068fc378daa952ba7f163c4a11628f55a4df523b3ef908290a45050565b803561ffff81168114611ce057600080fd5b919050565b634e487b7160e01b600052604160045260246000fd5b604051601f8201601f191681016001600160401b0381118282101715611d2357611d23611ce5565b604052919050565b60006001600160401b03821115611d4457611d44611ce5565b50601f01601f191660200190565b600082601f830112611d6357600080fd5b8135611d76611d7182611d2b565b611cfb565b818152846020838601011115611d8b57600080fd5b816020850160208301376000918101602001919091529392505050565b80356001600160401b0381168114611ce057600080fd5b60008060008060808587031215611dd557600080fd5b611dde85611cce565b935060208501356001600160401b0380821115611dfa57600080fd5b611e0688838901611d52565b9450611e1460408801611da8565b93506060870135915080821115611e2a57600080fd5b50611e3787828801611d52565b91505092959194509250565b6001600160e01b0319811681146112ff57600080fd5b600060208284031215611e6b57600080fd5b8135611e7681611e43565b9392505050565b60005b83811015611e98578181015183820152602001611e80565b50506000910152565b60008151808452611eb9816020860160208601611e7d565b601f01601f19169290920160200192915050565b602081526000611e766020830184611ea1565b600060208284031215611ef257600080fd5b5035919050565b6001600160a01b03811681146112ff57600080fd5b60008060408385031215611f2157600080fd5b8235611f2c81611ef9565b946020939093013593505050565b600080600060608486031215611f4f57600080fd5b8335611f5a81611ef9565b92506020840135611f6a81611ef9565b929592945050506040919091013590565b600080600060608486031215611f9057600080fd5b611f9984611cce565b92506020840135915060408401356001600160401b03811115611fbb57600080fd5b611fc786828701611d52565b9150509250925092565b600060208284031215611fe357600080fd5b8135611e7681611ef9565b60006020828403121561200057600080fd5b611e7682611cce565b60008060006060848603121561201e57600080fd5b61202784611cce565b925060208401356001600160401b0381111561204257600080fd5b61204e86828701611d52565b925050604084013590509250925092565b6000806040838503121561207257600080fd5b823561207d81611ef9565b91506020830135801515811461209257600080fd5b809150509250929050565b600080600080608085870312156120b357600080fd5b84356120be81611ef9565b935060208501356120ce81611ef9565b92506040850135915060608501356001600160401b038111156120f057600080fd5b611e3787828801611d52565b60008083601f84011261210e57600080fd5b5081356001600160401b0381111561212557600080fd5b60208301915083602082850101111561213d57600080fd5b9250929050565b60008060008060006080868803121561215c57600080fd5b61216586611cce565b945060208601356001600160401b038082111561218157600080fd5b61218d89838a01611d52565b955061219b60408901611da8565b945060608801359150808211156121b157600080fd5b506121be888289016120fc565b969995985093965092949392505050565b6000602082840312156121e157600080fd5b81356001600160401b038111156121f757600080fd5b6115b884828501611d52565b6000806040838503121561221657600080fd5b823561222181611ef9565b9150602083013561209281611ef9565b60008060006040848603121561224657600080fd5b61224f84611cce565b925060208401356001600160401b0381111561226a57600080fd5b612276868287016120fc565b9497909650939450505050565b600181811c9082168061229757607f821691505b6020821081036122b757634e487b7160e01b600052602260045260246000fd5b50919050565b60008083546122cb81612283565b600182811680156122e357600181146122f857612327565b60ff1984168752821515830287019450612327565b8760005260208060002060005b8581101561231e5781548a820152908401908201612305565b50505082870194505b50929695505050505050565b61ffff851681526080602082015260006123506080830186611ea1565b6001600160401b038516604084015282810360608401526123718185611ea1565b979650505050505050565b6000825161238e818460208701611e7d565b9190910192915050565b6020808252602d908201527f4552433732313a2063616c6c6572206973206e6f7420746f6b656e206f776e6560408201526c1c881bdc88185c1c1c9bdd9959609a1b606082015260800190565b60ff8516815260018060a01b03841660208201528260408201526080606082015260006124156080830184611ea1565b9695505050505050565b61ffff861681526001600160a01b038516602082015260a06040820181905260009061244d90830186611ea1565b841515606084015282810360808401526124678185611ea1565b98975050505050505050565b6000806040838503121561248657600080fd5b505080516020909101519092909150565b61ffff871681526000602060c081840152600088546124b581612283565b8060c087015260e06001808416600081146124d757600181146124f15761251f565b60ff1985168984015283151560051b89018301955061251f565b8d6000528660002060005b858110156125175781548b82018601529083019088016124fc565b8a0184019650505b505050505083810360408501526125368189611ea1565b91505061254e60608401876001600160a01b03169052565b6001600160a01b038516608084015282810360a084015261256f8185611ea1565b9998505050505050505050565b8183823760009101908152919050565b61ffff861681526080602082015260006125a96080830187611ea1565b6001600160401b03861660408401528281036060840152838152838560208301376000602085830101526020601f19601f8601168201019150509695505050505050565b634e487b7160e01b600052601160045260246000fd5b80820180821115610791576107916125ed565b600060018201612628576126286125ed565b5060010190565b601f82111561096057600081815260208120601f850160051c810160208610156126565750805b601f850160051c820191505b8181101561267557828155600101612662565b505050505050565b6001600160401b0383111561269457612694611ce5565b6126a8836126a28354612283565b8361262f565b6000601f8411600181146126dc57600085156126c45750838201355b600019600387901b1c1916600186901b178355612736565b600083815260209020601f19861690835b8281101561270d57868501358255602094850194600190920191016126ed565b508682101561272a5760001960f88860031b161c19848701351681555b505060018560011b0183555b5050505050565b6000806000806080858703121561275357600080fd5b845160ff8116811461276457600080fd5b602086015190945061277581611ef9565b6040860151606087015191945092506001600160401b0381111561279857600080fd5b8501601f810187136127a957600080fd5b80516127b7611d7182611d2b565b8181528860208385010111156127cc57600080fd5b6127dd826020830160208601611e7d565b9598949750929550505050565b60208082526025908201527f4552433732313a207472616e736665722066726f6d20696e636f72726563742060408201526437bbb732b960d91b606082015260800190565b60208082526032908201527f4552433732313a207472616e7366657220746f206e6f6e20455243373231526560408201527131b2b4bb32b91034b6b83632b6b2b73a32b960711b606082015260800190565b81516001600160401b0381111561289a5761289a611ce5565b6128ae816128a88454612283565b8461262f565b602080601f8311600181146128e357600084156128cb5750858301515b600019600386901b1c1916600185901b178555612675565b600085815260208120601f198616915b82811015612912578886015182559484019460019091019084016128f3565b50858210156129305787850151600019600388901b60f8161c191681555b5050505050600190811b01905550565b6001600160a01b038581168252841660208201526040810183905260806060820181905260009061241590830184611ea1565b60006020828403121561298557600080fd5b8151611e7681611e4356fea2646970667358221220c2cbb11278086a34b7bae28be6a31348fce39bc8b668c05657572d2096fd54e564736f6c63430008120033",
  "devdoc": {
    "events": {
      "Approval(address,address,uint256)": {
        "details": "Emitted when `owner` enables `approved` to manage the `tokenId` token."
      },
      "ApprovalForAll(address,address,bool)": {
        "details": "Emitted when `owner` enables or disables (`approved`) `operator` to manage all of its assets."
      },
      "Transfer(address,address,uint256)": {
        "details": "Emitted when `tokenId` token is transferred from `from` to `to`."
      }
    },
    "kind": "dev",
    "methods": {
      "approve(address,uint256)": {
        "details": "See {IERC721-approve}."
      },
      "balanceOf(address)": {
        "details": "See {IERC721-balanceOf}."
      },
      "getApproved(uint256)": {
        "details": "See {IERC721-getApproved}."
      },
      "isApprovedForAll(address,address)": {
        "details": "See {IERC721-isApprovedForAll}."
      },
      "name()": {
        "details": "See {IERC721Metadata-name}."
      },
      "owner()": {
        "details": "Returns the address of the current owner."
      },
      "ownerOf(uint256)": {
        "details": "See {IERC721-ownerOf}."
      },
      "renounceOwnership()": {
        "details": "Leaves the contract without owner. It will not be possible to call `onlyOwner` functions. Can only be called by the current owner. NOTE: Renouncing ownership will leave the contract without an owner, thereby disabling any functionality that is only available to the owner."
      },
      "safeTransferFrom(address,address,uint256)": {
        "details": "See {IERC721-safeTransferFrom}."
      },
      "safeTransferFrom(address,address,uint256,bytes)": {
        "details": "See {IERC721-safeTransferFrom}."
      },
      "setApprovalForAll(address,bool)": {
        "details": "See {IERC721-setApprovalForAll}."
      },
      "supportsInterface(bytes4)": {
        "details": "See {IERC165-supportsInterface}."
      },
      "symbol()": {
        "details": "See {IERC721Metadata-symbol}."
      },
      "tokenURI(uint256)": {
        "details": "See {IERC721Metadata-tokenURI}."
      },
      "transferFrom(address,address,uint256)": {
        "details": "See {IERC721-transferFrom}."
      },
      "transferOwnership(address)": {
        "details": "Transfers ownership of the contract to a new account (`newOwner`). Can only be called by the current owner."
      }
    },
    "version": 1
  },
  "userdoc": {
    "kind": "user",
    "methods": {},
    "version": 1
  },
  "storageLayout": {
    "storage": [
      {
        "astId": 197,
        "contract": "contracts/MaterialWorldONFT.sol:MaterialWorldONFT",
        "label": "_owner",
        "offset": 0,
        "slot": "0",
        "type": "t_address"
      },
      {
        "astId": 328,
        "contract": "contracts/MaterialWorldONFT.sol:MaterialWorldONFT",
        "label": "_name",
        "offset": 0,
        "slot": "1",
        "type": "t_string_storage"
      },
      {
        "astId": 330,
        "contract": "contracts/MaterialWorldONFT.sol:MaterialWorldONFT",
        "label": "_symbol",
        "offset": 0,
        "slot": "2",
        "type": "t_string_storage"
      },
      {
        "astId": 334,
        "contract": "contracts/MaterialWorldONFT.sol:MaterialWorldONFT",
        "label": "_owners",
        "offset": 0,
        "slot": "3",
        "type": "t_mapping(t_uint256,t_address)"
      },
      {
        "astId": 338,
        "contract": "contracts/MaterialWorldONFT.sol:MaterialWorldONFT",
        "label": "_balances",
        "offset": 0,
        "slot": "4",
        "type": "t_mapping(t_address,t_uint256)"
      },
      {
        "astId": 342,
        "contract": "contracts/MaterialWorldONFT.sol:MaterialWorldONFT",
        "label": "_tokenApprovals",
        "offset": 0,
        "slot": "5",
        "type": "t_mapping(t_uint256,t_address)"
      },
      {
        "astId": 348,
        "contract": "contracts/MaterialWorldONFT.sol:MaterialWorldONFT",
        "label": "_operatorApprovals",
        "offset": 0,
        "slot": "6",
        "type": "t_mapping(t_address,t_mapping(t_address,t_bool))"
      },
      {
        "astId": 2993,
        "contract": "contracts/MaterialWorldONFT.sol:MaterialWorldONFT",
        "label": "endpoint",
        "offset": 0,
        "slot": "7",
        "type": "t_contract(ILayerZeroEndpoint)144"
      },
      {
        "astId": 3007,
        "contract": "contracts/MaterialWorldONFT.sol:MaterialWorldONFT",
        "label": "failedMessages",
        "offset": 0,
        "slot": "8",
        "type": "t_mapping(t_uint16,t_mapping(t_bytes_memory_ptr,t_mapping(t_uint256,t_struct(FailedMessages)2998_storage)))"
      },
      {
        "astId": 3011,
        "contract": "contracts/MaterialWorldONFT.sol:MaterialWorldONFT",
        "label": "trustedRemoteLookup",
        "offset": 0,
        "slot": "9",
        "type": "t_mapping(t_uint16,t_bytes_storage)"
      },
      {
        "astId": 3271,
        "contract": "contracts/MaterialWorldONFT.sol:MaterialWorldONFT",
        "label": "_owner",
        "offset": 0,
        "slot": "10",
        "type": "t_address"
      },
      {
        "astId": 3275,
        "contract": "contracts/MaterialWorldONFT.sol:MaterialWorldONFT",
        "label": "_tokenUris",
        "offset": 0,
        "slot": "11",
        "type": "t_mapping(t_uint256,t_string_storage)"
      },
      {
        "astId": 3278,
        "contract": "contracts/MaterialWorldONFT.sol:MaterialWorldONFT",
        "label": "nextTokenId",
        "offset": 0,
        "slot": "12",
        "type": "t_uint256"
      },
      {
        "astId": 3281,
        "contract": "contracts/MaterialWorldONFT.sol:MaterialWorldONFT",
        "label": "MAX_MINT_ETHEREUM",
        "offset": 0,
        "slot": "13",
        "type": "t_uint256"
      },
      {
        "astId": 3284,
        "contract": "contracts/MaterialWorldONFT.sol:MaterialWorldONFT",
        "label": "gasForDestinationLzReceive",
        "offset": 0,
        "slot": "14",
        "type": "t_uint256"
      }
    ],
    "types": {
      "t_address": {
        "encoding": "inplace",
        "label": "address",
        "numberOfBytes": "20"
      },
      "t_bool": {
        "encoding": "inplace",
        "label": "bool",
        "numberOfBytes": "1"
      },
      "t_bytes32": {
        "encoding": "inplace",
        "label": "bytes32",
        "numberOfBytes": "32"
      },
      "t_bytes_memory_ptr": {
        "encoding": "bytes",
        "label": "bytes",
        "numberOfBytes": "32"
      },
      "t_bytes_storage": {
        "encoding": "bytes",
        "label": "bytes",
        "numberOfBytes": "32"
      },
      "t_contract(ILayerZeroEndpoint)144": {
        "encoding": "inplace",
        "label": "contract ILayerZeroEndpoint",
        "numberOfBytes": "20"
      },
      "t_mapping(t_address,t_bool)": {
        "encoding": "mapping",
        "key": "t_address",
        "label": "mapping(address => bool)",
        "numberOfBytes": "32",
        "value": "t_bool"
      },
      "t_mapping(t_address,t_mapping(t_address,t_bool))": {
        "encoding": "mapping",
        "key": "t_address",
        "label": "mapping(address => mapping(address => bool))",
        "numberOfBytes": "32",
        "value": "t_mapping(t_address,t_bool)"
      },
      "t_mapping(t_address,t_uint256)": {
        "encoding": "mapping",
        "key": "t_address",
        "label": "mapping(address => uint256)",
        "numberOfBytes": "32",
        "value": "t_uint256"
      },
      "t_mapping(t_bytes_memory_ptr,t_mapping(t_uint256,t_struct(FailedMessages)2998_storage))": {
        "encoding": "mapping",
        "key": "t_bytes_memory_ptr",
        "label": "mapping(bytes => mapping(uint256 => struct NonblockingReceiver.FailedMessages))",
        "numberOfBytes": "32",
        "value": "t_mapping(t_uint256,t_struct(FailedMessages)2998_storage)"
      },
      "t_mapping(t_uint16,t_bytes_storage)": {
        "encoding": "mapping",
        "key": "t_uint16",
        "label": "mapping(uint16 => bytes)",
        "numberOfBytes": "32",
        "value": "t_bytes_storage"
      },
      "t_mapping(t_uint16,t_mapping(t_bytes_memory_ptr,t_mapping(t_uint256,t_struct(FailedMessages)2998_storage)))": {
        "encoding": "mapping",
        "key": "t_uint16",
        "label": "mapping(uint16 => mapping(bytes => mapping(uint256 => struct NonblockingReceiver.FailedMessages)))",
        "numberOfBytes": "32",
        "value": "t_mapping(t_bytes_memory_ptr,t_mapping(t_uint256,t_struct(FailedMessages)2998_storage))"
      },
      "t_mapping(t_uint256,t_address)": {
        "encoding": "mapping",
        "key": "t_uint256",
        "label": "mapping(uint256 => address)",
        "numberOfBytes": "32",
        "value": "t_address"
      },
      "t_mapping(t_uint256,t_string_storage)": {
        "encoding": "mapping",
        "key": "t_uint256",
        "label": "mapping(uint256 => string)",
        "numberOfBytes": "32",
        "value": "t_string_storage"
      },
      "t_mapping(t_uint256,t_struct(FailedMessages)2998_storage)": {
        "encoding": "mapping",
        "key": "t_uint256",
        "label": "mapping(uint256 => struct NonblockingReceiver.FailedMessages)",
        "numberOfBytes": "32",
        "value": "t_struct(FailedMessages)2998_storage"
      },
      "t_string_storage": {
        "encoding": "bytes",
        "label": "string",
        "numberOfBytes": "32"
      },
      "t_struct(FailedMessages)2998_storage": {
        "encoding": "inplace",
        "label": "struct NonblockingReceiver.FailedMessages",
        "members": [
          {
            "astId": 2995,
            "contract": "contracts/MaterialWorldONFT.sol:MaterialWorldONFT",
            "label": "payloadLength",
            "offset": 0,
            "slot": "0",
            "type": "t_uint256"
          },
          {
            "astId": 2997,
            "contract": "contracts/MaterialWorldONFT.sol:MaterialWorldONFT",
            "label": "payloadHash",
            "offset": 0,
            "slot": "1",
            "type": "t_bytes32"
          }
        ],
        "numberOfBytes": "64"
      },
      "t_uint16": {
        "encoding": "inplace",
        "label": "uint16",
        "numberOfBytes": "2"
      },
      "t_uint256": {
        "encoding": "inplace",
        "label": "uint256",
        "numberOfBytes": "32"
      }
    }
  }
}